:100000002DC051C050C04FC04EC04DC04CC04BC0A1
:100010004AC049C048C00FC246C045C044C043C0E2
:1000200042C000003A00370000003B0038000000EA
:100030000102030400000000000000000039003647
:100040000002020201010101010101010201020499
:10005000804020100804020108009A0311241FBEEA
:10006000CFE5D1E0DEBFCDBF10E0A0E6B0E0E0EF2D
:10007000F7E002C005900D92A836B107D9F720E04D
:10008000A8E6B0E001C01D92AA3AB207E1F710E07D
:10009000CEE2D0E003C02197FE019ED3CD32D1073E
:1000A000D1F713D2A3C3ACCF3FB7F894809191009E
:1000B00090919200A0919300B091940022B708B65D
:1000C00000FE05C02F3F19F00196A11DB11D3FBFD5
:1000D000BA2FA92F982F8827BC01CD01620F711D5F
:1000E000811D911D43E0660F771F881F991F4A9558
:1000F000D1F70895CF92DF92EF92FF92CF93DF93E3
:10010000D3DFEB0182E3C82ED12CE12CF12CCCDF24
:100110006C1B7D0B683E7340A0F0C114D104E10458
:10012000F10439F4DF91CF91FF90EF90DF90CF9001
:10013000089581E0C81AD108E108F108C851DC4FE0
:10014000E6CFC114D104E104F10409F7EBCF2FB7D6
:10015000F89460918D0070918E0080918F00909145
:1001600090002FBF089587FF07C0E82FEF778AE040
:100170008E1BE83008F08FEF90E0FC01E35BFF4F4F
:100180002491FC01EF5BFF4FE491EE2371F0F0E06E
:10019000EE0FFF1FE55CFF4FA591B491EC91E223B8
:1001A00081E090E021F480E0089580E090E00895FF
:1001B000FC018189D8DF21E0892B09F420E0822F1E
:1001C0000895CF93DF93EC011886F2DF882319F0AE
:1001D000888583608887BBDF6A837B838C839D836C
:1001E000DF91CF910895CF92DF92EF92FF920F931C
:1001F0001F93CF93DF93EC0188858B7F8887CE0197
:10020000D7DF182F8885869581701817B1F09FDF8A
:100210006A837B838C839D83888592E08927888786
:10022000888582FB882780F9DF91CF911F910F91FC
:10023000FF90EF90DF90CF90089589DFCA80DB8038
:10024000EC80FD80AB01BC014C195D096E097F0992
:100250008E819F81B0E0A0E0481759076A077B07AD
:10026000F8F2888581701817D9F271DF6A837B8371
:100270008C839D83888591E089278460888767DFE8
:1002800009851A852B853C85601B710B820B930BAE
:100290006D877E878F87988B5ADF69877A878B87F0
:1002A0009C87BECF87FF07C0E82FEF778AE08E1BC1
:1002B000E83008F08FEF90E0FC01E25DFF4F3491F1
:1002C000FC01E35BFF4F2491FC01EF5BFF4FE491E6
:1002D000EE23B9F0332329F03130A1F480B78F77C2
:1002E00080BFF0E0EE0FFF1FE85DFF4FA591B491D6
:1002F0008FB7611117C0F894EC9120952E232C93A1
:100300008FBF0895323019F480B78F7DE9CF333035
:1003100021F48FB58F778FBDE4CF343011F78FB5CF
:100320008F7DF9CFF894EC912E2BE9CF8091950039
:1003300090919D00992391F061E0B4DF61E080919C
:100340009600B0DF61E080919800ACDF80919E0064
:100350008823B9F061E080919A00A4CF60E0A2DF29
:1003600060E0809198009EDF80919E00882329F0B4
:1003700061E08091960096DFEDCF60E0809196007D
:1003800091DF60E0E8CFCF93DF9387FF07C0E82FCE
:10039000EF778AE08E1BE83008F08FEF90E0FC01E9
:1003A000E35BFF4F24918F5B9F4FFC018491882377
:1003B000C9F090E0880F991FFC01EE5DFF4FA591F9
:1003C000B491FC01E85DFF4FC591D49161110DC05E
:1003D0009FB7F8948C91209582238C938881282351
:1003E00028839FBFDF91CF910895623051F49FB76A
:1003F000F8943C91822F809583238C93E8812E2B57
:10040000EFCF8FB7F894EC912E2B2C938FBFEACFC0
:10041000CF93DF93EC0161E08981B5DF61E08881F2
:10042000811101C060E08981DF91CF913BCF862FA0
:10043000642FA9CFD7D11F920F920FB60F9211241C
:100440002F933F938F939F93AF93BF9380918D0092
:1004500090918E00A0918F00B091900030918C000F
:1004600026E0230F2D3768F129E8230F0396A11DFD
:10047000B11D20938C0080938D0090938E00A093EB
:100480008F00B09390008091910090919200A09184
:100490009300B09194000196A11DB11D809391002D
:1004A00090939200A0939300B0939400BF91AF916A
:1004B0009F918F913F912F910F900FBE0F901F90A2
:1004C00018950296A11DB11DD4CFC3E0C0BFC3BF14
:1004D000789489B7816089BF81E08FBDCEBD86E801
:1004E00086B962E084E04FDF84E080938B008AE786
:1004F00090E067DE08E210E0109381000093800036
:1005000062E083E040DFC093790088E690E059DE46
:1005100010936F0000936E0061E081E034DF61E0D2
:1005200080E031DF61E081E02EDF61E080E02BDF01
:1005300087E990E06DDF89E990E06ADF84E013DE0F
:100540008C0183E010DEEC0190E080E02FD191E09F
:10055000811101C090E090939D00FF24F394012B42
:10056000C1F5F092A000F3DD0091A2001091A3006C
:100570002091A4003091A5004B015C01801A910AE2
:10058000A20AB30A0091A6001091A7002091A8002A
:100590003091A90080169106A206B30698F06093E8
:1005A000A2007093A3008093A4009093A500809173
:1005B0009F0081110BC0F0929F0060919F0080917D
:1005C000980070DE84E0CFDD8C01C9CF10929F00CF
:1005D000F4CF8091A000882349F060919D0081E0D4
:1005E000682760939D0090E080E0E8D081E090E093
:1005F000DDD091E0811101C090E090939E0011E068
:10060000CD2BC1F51093A100A2DDC090A200D09027
:10061000A300E090A400F090A5004B015C018C18B1
:100620009D08AE08BF08C090A600D090A700E0903B
:10063000A800F090A9008C149D04AE04BF0498F0AB
:100640006093A2007093A3008093A4009093A500F0
:1006500080919F0081110BC010939F0060919F00BB
:1006600080919A001FDE83E07EDDEC01C9CF1092FD
:100670009F00F4CF8091A100882349F060919E00F3
:1006800081E0682760939E0081E090E097D08091A0
:10069000A00081111DC08091A100811119C080911D
:1006A0009D0090919E0091113AC061E0811132C08D
:1006B00080919800F7DD61E080919A00F3DD1ADD0A
:1006C00060E080919800EEDD60E080919A00EADDC4
:1006D0002DDE2CDEC1E08AE790E085DD88E690E043
:1006E00082DD8091820080FD08C082FF06C080917B
:1006F0009D008C2780939D0019DE8091700080FD05
:10070000EACF82FFE8CF80919E008C2780939E00E5
:100710000DDEE1CF80919A00C5DDECDCD5CF8111F3
:10072000D7CF61E080919800BDDDE4DC60E080918E
:100730009800CDCFEAE7F0E012821382148215828E
:100740002AE030E037832683108684E690E09183A8
:100750008083118AE8E6F0E0128213821482158207
:1007600037832683108691838083118AE5E9F0E040
:1007700081E080831182128289E08383148288E081
:100780008583168287E087831086118612861386FA
:100790001486158616861786108A8BE490E0A0E0F2
:1007A000B0E0818B928BA38BB48B0895E199FECF3F
:1007B0001FBA8EBBE09A99278DB30895262FE19931
:1007C000FECF1CBA1FBA8EBB2DBB0FB6F894E29AAF
:1007D000E19A0FBE01960895EE0FFF1F0590F49168
:1007E000E02D099481E090E0F89400C0F894FFCFE8
:0807F00000000000D800170210
:00000001FF
