:100000002DC051C050C04FC04EC04DC04CC04BC0A1
:100010004AC049C048C091C246C045C044C043C060
:1000200042C000003A00370000003B0038000000EA
:100030000102030400000000000000000039003647
:100040000002020201010101010101010201020499
:1000500080402010080402010800010511241FBE81
:10006000CFE5D1E0DEBFCDBF10E0A0E6B0E0E8E62E
:10007000FAE002C005900D92AA36B107D9F720E048
:10008000AAE6B0E001C01D92AF38B207E1F710E078
:10009000CEE2D0E003C02197FE01DAD4CD32D10701
:1000A000D1F795D2DFC4ACCF90918500957081E0F7
:1000B000953009F080E008953FB7F894809178007A
:1000C00090917900A0917A00B0917B0022B708B698
:1000D00000FE05C02F3F19F00196A11DB11D3FBFC5
:1000E000BA2FA92F982F8827BC01CD01620F711D4F
:1000F000811D911D43E0660F771F881F991F4A9548
:10010000D1F70895CF92DF92EF92FF92CF93DF93D2
:100110006B017C01D1DFEB01CFDF6C1B7D0B683EF7
:100120007340A0F0C114D104E104F10439F4DF916B
:10013000CF91FF90EF90DF90CF90089581E0C81AA3
:10014000D108E108F108C851DC4FE6CFC114D10451
:10015000E104F10409F7EBCF2FB7F8946091740034
:100160007091750080917600909177002FBF08956F
:1001700087FF07C0E82FEF778AE08E1BE83008F092
:100180008FEF90E0FC01E35BFF4F2491FC01EF5BFC
:10019000FF4FE491EE2371F0F0E0EE0FFF1FE55CFE
:1001A000FF4FA591B491EC91E22381E090E021F41E
:1001B00080E0089580E090E00895FC018189D8DF17
:1001C00021E0892B09F420E0822F0895CF92DF925D
:1001D000EF92FF920F931F93CF936B017C0180915D
:1001E00085008B7F809385008DE790E0E6DFC82F48
:1001F0008091850086958170C817C1F0ADDF60934E
:100200007F007093800080938100909382008091A2
:10021000850092E08927809385008091850080FF8A
:1002200053C042DF81117EC0C0E069C095DF0091FC
:100230007F00109180002091810030918200AB01FD
:10024000BC01401B510B620B730B8091830090919A
:100250008400B0E0A0E0481759076A077B07E8F27E
:10026000809185008170C817C1F276DF60937F00AE
:10027000709380008093810090938200809185002C
:1002800091E0892784608093850066DF0091860075
:10029000109187002091880030918900601B710BBC
:1002A000820B930B60938A0070938B0080938C0079
:1002B00090938D0051DF6093860070938700809348
:1002C000880090938900A9CF80917C008111A9CFEB
:1002D00043DF0091860010918700209188003091C3
:1002E0008900601B710B820B930BC616D706E806BC
:1002F000F90608F096CF81E080937C00C2E0D4DE5E
:10030000882339F080917C00813019F410927C00B0
:10031000C3E08C2FCF911F910F91FF90EF90DF9052
:10032000CF900895C1E080917C00882341F37CCF79
:1003300090E0FC01E25DFF4F3491FC01E35BFF4F75
:100340002491FC01EF5BFF4FE491EE23B9F03323DE
:1003500029F03130A1F480B78F7780BFF0E0EE0F45
:10036000FF1FE85DFF4FA591B4918FB7611117C0D2
:10037000F894EC9120952E232C938FBF0895323062
:1003800019F480B78F7DE9CF333021F48FB58F77A3
:100390008FBDE4CF343011F78FB58F7DF9CFF8944E
:1003A000EC912E2BE9CF6F927F928F929F92BF920A
:1003B000CF92DF92EF92FF920F931F93CF93DF9331
:1003C000B82EEB01C9DE00916C0010916D002091F8
:1003D0006E0030916F006E010D2E000CEE08FF08CC
:1003E0003B014C01601A710A820A930A940183014D
:1003F000B11047C00C151D052E053F0508F446C079
:1004000060936C0070936D0080936E0090936F000A
:1004100080916B0081111BC081E080936B00109173
:100420006B00612F89E084DFCB34D10579F5612F32
:1004300085E0DF91CF911F910F91FF90EF90DF90BA
:10044000CF90BF909F908F907F906F9071CF1092C0
:100450006B00E5CF60936C0070936D0080936E002D
:1004600090936F0080916A00811108C081E08093B1
:100470006A0010916A00612F87E0D5CF10926A0060
:10048000F8CF0C151D052E053F0520F7DF91CF9104
:100490001F910F91FF90EF90DF90CF90BF909F90B2
:1004A0008F907F906F900895CF93DF9387FF07C061
:1004B000E82FEF778AE08E1BE83008F08FEF90E0AE
:1004C000FC01E35BFF4F24918F5B9F4FFC01849104
:1004D0008823C9F090E0880F991FFC01EE5DFF4F63
:1004E000A591B491FC01E85DFF4FC591D4916111D4
:1004F0000DC09FB7F8948C91209582238C938881AE
:10050000282328839FBFDF91CF910895623051F453
:100510009FB7F8943C91822F809583238C93E88138
:100520002E2BEFCF8FB7F894EC912E2B2C938FBFFF
:10053000EACF862F642FB8CF91D21F920F920FB6B9
:100540000F9211242F933F938F939F93AF93BF9359
:100550008091740090917500A0917600B091770021
:100560003091730026E0230F2D3768F129E8230F1F
:100570000396A11DB11D2093730080937400909386
:100580007500A0937600B0937700809178009091E9
:100590007900A0917A00B0917B000196A11DB11D58
:1005A0008093780090937900A0937A00B0937B00B9
:1005B000BF91AF919F918F913F912F910F900FBE5F
:1005C0000F901F9018950296A11DB11DD4CF83E006
:1005D00080BF83BF789499B7916099BF91E09FBD28
:1005E0008EBD86E886B961E081E05EDF61E080E093
:1005F0005BDF61E087E058DF61E089E055DF61E0C3
:1006000085E052DF62E082E04FDF62E08AE04CDFAB
:1006100062E083E049DF62E084E046DF84E08093CB
:100620008E00109285008DE790E0C7DD882329F0C9
:10063000809185008360809385008EDD60937F00CC
:1006400070938000809381009093820088E290E014
:10065000909384008093830090E080E0E3D1182F92
:100660008093600081E090E0DDD1C82F809371001D
:1006700084E07EDD01E0892B09F400E083E078DD91
:10068000D82F80937200FF24F39401110CC0F092D4
:1006900070006BE470E081E0C11180E084DE84E0F2
:1006A00067DD892BA1F380917000882309F443C092
:1006B00061E0111160E06093600090E080E0BAD1E9
:1006C00010927000D0916000C0917100D11156C09D
:1006D00060E087E02DDE60E089E02ADE60E085E012
:1006E00027DE64EF71E080E090E070DD61E0D11121
:1006F00060E081E01DDE61E0C11160E080E018DEB5
:1007000060ED77E080E090E061DDD82F83E030DDC0
:1007100080937200813009F051C080916000811196
:100720003CC060E087E004DE60E089E001DE60E07C
:1007300085E0FEDD65C0D13029F661E0C11111C050
:1007400087E0F6DD61E085E0F3DD6BE470E080E0FA
:1007500090E0D8DC60E087E0EBDD60E085E0E8DD9C
:10076000B1CF89E0E5DD61E085E0E2DD6BE470E0DA
:1007700080E090E0C7DC60E089E0EECFC11108C006
:1007800061E087E0D5DD60E089E0D2DD61E0A7CF00
:1007900060E087E0CDDD61E0F7CF809171008111ED
:1007A00008C061E087E0C4DD60E089E0C1DD61E0B0
:1007B000BFCF60E087E0BCDD61E0F7CF811120C0F2
:1007C00060E085E0B5DD82E0D3DCC82F8093710066
:1007D0008AE0CEDC91E0811190E090936000882364
:1007E00041F161E081E0A4DDC11119C061E080E068
:1007F0009FDD60E089E09CDD64EF71E081E0D3DDA6
:10080000D13069F58091600091E0811190E0909382
:10081000600061E0811101C060E081E070CF60E0C4
:1008200080E086DD60E087E083DD64EF71E080E0FA
:10083000E6CF60E081E07CDDC13049F461E080E03A
:1008400077DD60E087E074DD61E089E072CF60E031
:1008500080E06EDD61E087E06BDD60E0F6CFD230F6
:1008600009F04ECF80917100C1E08111C0E0C093CA
:10087000710061E0811101C060E080E059DD6C2F02
:1008800081E090E0D7D0909160008091710091114B
:1008900056C0811133C061E087E04ADD60E089E045
:1008A00047DD61E085E044DD62E370E080E090E0F8
:1008B00029DC60E087E03CDD60E089E039DD60E074
:1008C00085E036DD62E370E080E090E01BDC61E013
:1008D00087E02EDD60E089E02BDD61E085E028DD4A
:1008E00062E370E080E090E00DDC60E087E020DD16
:1008F00060E089E01DDD60E085E001CF60E087E039
:1009000017DD61E089E014DD61E085E011DD62E37F
:1009100070E080E090E0F6DB60E087E009DD60E019
:1009200089E006DD60E085E003DD62E370E080E001
:1009300090E0E8DB60E087E0FBDC61E0CCCF60E0EA
:10094000811131C087E0F4DC60E089E0F1DC60E037
:1009500085E0EEDC62E370E080E090E0D3DB61E014
:1009600087E0E6DC60E089E0E3DC61E085E0E0DC94
:1009700062E370E080E090E0C5DB60E087E0D8DC17
:1009800060E089E0D5DC60E085E0D2DC62E370E025
:1009900080E090E0B7DB61E087E0CADC60E089E0FE
:1009A000C7DC61E0A9CF87E0C3DC60E089E0C0DCA0
:1009B00060E085E0BDDC62E370E080E090E0A2DB17
:1009C00060E087E0B5DC61E089E0B2DC61E085E011
:1009D000AFDC62E370E080E090E094DB60E087E011
:1009E000A7DC60E089E0A4DC60E085E0A1DC62E3F4
:1009F00070E080E090E086DB60E087E099DC61E019
:100A0000CECFEDE7F0E012821382148215828AE0E5
:100A100090E097838683108685E690E091838083BB
:100A2000118A0895E199FECF1FBA8EBBE09A9927EB
:100A30008DB30895262FE199FECF1CBA1FBA8EBB45
:100A40002DBB0FB6F894E29AE19A0FBE0196089575
:100A5000EE0FFF1F0590F491E02D099481E090E0E6
:080A6000F89400C0F894FFCFE8
:0A0A68000100000000DD009902000B
:00000001FF
