:100000002DC051C050C04FC04EC04DC04CC04BC0A1
:100010004AC049C048C031C246C045C044C043C0C0
:1000200042C000003A00370000003B0038000000EA
:100030000102030400000000000000000039003647
:100040000002020201010101010101010201020499
:1000500080402010080402010800390411241FBE4A
:10006000CFE5D1E0DEBFCDBF10E0A0E6B0E0E8ED27
:10007000F8E002C005900D92A836B107D9F720E04C
:10008000A8E6B0E001C01D92A039B207E1F710E088
:10009000CEE2D0E003C02197FE0112D4CD32D107C9
:1000A000D1F735D217C4ACCF90918600957081E01E
:1000B000953009F080E008953FB7F8948091790079
:1000C00090917A00A0917B00B0917C0022B708B695
:1000D00000FE05C02F3F19F00196A11DB11D3FBFC5
:1000E000BA2FA92F982F8827BC01CD01620F711D4F
:1000F000811D911D43E0660F771F881F991F4A9548
:10010000D1F70895CF92DF92EF92FF92CF93DF93D2
:100110006B017C01D1DFEB01CFDF6C1B7D0B683EF7
:100120007340A0F0C114D104E104F10439F4DF916B
:10013000CF91FF90EF90DF90CF90089581E0C81AA3
:10014000D108E108F108C851DC4FE6CFC114D10451
:10015000E104F10409F7EBCF2FB7F8946091750033
:100160007091760080917700909178002FBF08956C
:1001700087FF07C0E82FEF778AE08E1BE83008F092
:100180008FEF90E0FC01E35BFF4F2491FC01EF5BFC
:10019000FF4FE491EE2371F0F0E0EE0FFF1FE55CFE
:1001A000FF4FA591B491EC91E22381E090E021F41E
:1001B00080E0089580E090E00895FC018189D8DF17
:1001C00021E0892B09F420E0822F0895CF92DF925D
:1001D000EF92FF920F931F93CF936B017C0180915D
:1001E00086008B7F809386008EE790E0E6DFC82F45
:1001F0008091860086958170C817C1F0ADDF60934D
:10020000800070938100809382009093830080919E
:10021000860092E08927809386008091860080FF87
:1002200053C042DF81117EC0C0E069C095DF0091FC
:100230008000109181002091820030918300AB01F9
:10024000BC01401B510B620B730B80918400909199
:100250008500B0E0A0E0481759076A077B07E8F27D
:10026000809186008170C817C1F276DF60938000AC
:100270007093810080938200909383008091860028
:1002800091E0892784608093860066DF0091870073
:10029000109188002091890030918A00601B710BB9
:1002A000820B930B60938B0070938C0080938D0076
:1002B00090938E0051DF6093870070938800809345
:1002C000890090938A00A9CF80917D008111A9CFE8
:1002D00043DF0091870010918800209189003091C0
:1002E0008A00601B710B820B930BC616D706E806BB
:1002F000F90608F096CF81E080937D00C2E0D4DE5D
:10030000882339F080917D00813019F410927D00AE
:10031000C3E08C2FCF911F910F91FF90EF90DF9052
:10032000CF900895C1E080917D00882341F37CCF78
:1003300090E0FC01E25DFF4F3491FC01E35BFF4F75
:100340002491FC01EF5BFF4FE491EE23B9F03323DE
:1003500029F03130A1F480B78F7780BFF0E0EE0F45
:10036000FF1FE85DFF4FA591B4918FB7611117C0D2
:10037000F894EC9120952E232C938FBF0895323062
:1003800019F480B78F7DE9CF333021F48FB58F77A3
:100390008FBDE4CF343011F78FB58F7DF9CFF8944E
:1003A000EC912E2BE9CFCF93DF9387FF07C0E82F87
:1003B000EF778AE08E1BE83008F08FEF90E0FC01C9
:1003C000E35BFF4F24918F5B9F4FFC018491882357
:1003D000C9F090E0880F991FFC01EE5DFF4FA591D9
:1003E000B491FC01E85DFF4FC591D49161110DC03E
:1003F0009FB7F8948C91209582238C938881282331
:1004000028839FBFDF91CF910895623051F49FB749
:10041000F8943C91822F809583238C93E8812E2B36
:10042000EFCF8FB7F894EC912E2B2C938FBFEACFA0
:10043000862F642FB8CF4AD235C22CC2CF93DF9318
:1004400090E080E0FADFD82F8093680081E090E0B0
:10045000F4DFC82F8093690082E090E0EEDF982FF0
:1004600080936A0081E0DE3029F4C83019F49935B0
:1004700009F480E0DF91CF9108951F920F920FB69B
:100480000F9211242F933F938F939F93AF93BF931A
:100490008091750090917600A0917700B0917800DE
:1004A0003091740026E0230F2D3768F129E8230FDF
:1004B0000396A11DB11D2093740080937500909345
:1004C0007600A0937700B0937800809179009091A6
:1004D0007A00A0917B00B0917C000196A11DB11D16
:1004E0008093790090937A00A0937B00B0937C0076
:1004F000BF91AF919F918F913F912F910F900FBE20
:100500000F901F9018950296A11DB11DD4CF83E0C6
:1005100080BF83BF789499B7916099BF91E09FBDE8
:100520008EBD86E886B962E084E03DDF61E081E06F
:100530003ADF61E080E037DF61E087E034DF61E0EF
:1005400089E031DF62E084E02EDF84E080938F0079
:10055000109286008EE790E030DE882329F08091AB
:100560008600836080938600F7DD6093800070933F
:100570008100809382009093830088E290E09093C2
:100580008500809384005ADF882341F060E083E097
:1005900090E052DF60E084E090E04EDF83E090E0A6
:1005A0004CDF8093730084E090E047DF809372001B
:1005B00084E0DEDDD1E0892B09F4D0E03FDF81115A
:1005C000AEC0C1E0D11133C0C0937100C0906D00C6
:1005D000D0906E00E0906F00F090700080917200FB
:1005E000811168C0B9DD9B01AC012C193D094E0990
:1005F0005F0969017A013BE4C316D104E104F10407
:1006000090F060936D0070936E0080936F009093F4
:10061000700080916B0081114AC0C0936B006091A3
:100620006B0087E085DE84E0A3DD892B69F2809191
:100630007100882309F463C061E080917300811127
:1006400060E06093730083E090E0F6DE109271004A
:100650006091730081E06CDE61E080917200811135
:1006600060E080E065DE64EF71E080E090E0AEDDA8
:100670001091730060E0112329F0809172008111C4
:1006800085C061E087E054DE60E089E051DE60ED26
:1006900077E080E090E09ADD813009F07CC061E095
:1006A000111160E06093730081E042DEE1CF1092AF
:1006B0006B00B5CF51DD9B01AC012C193D094E09F2
:1006C0005F0969017A013BE4C316D104E104F10436
:1006D00008F4A9CF60936D0070936E0080936F0053
:1006E0009093700080916C00811106C0C0936C00E3
:1006F00060916C0089E096CF10926C00F9CF8091E8
:10070000720061E0811138C087E012DE6BE470E0B6
:1007100080E090E0F7DC60E087E00ADE99CF6EE0F1
:1007200090E080E089DE68E081E090E085DE69E5C8
:1007300082E090E081DE61E087E0FADD6BE470E06A
:1007400080E090E0DFDC60E087E0F2DD6BE470E009
:1007500080E090E0D7DC61E088E0EADD6BE470E007
:1007600080E090E0CFDC60E088E0E2DD6BE470E008
:1007700080E090E0C7DC61E089E0DADD6BE470E006
:1007800080E090E0BFDC60E089E0C7CF60E087E018
:10079000CFDD61E07ACF823009F06ACFD09172006C
:1007A000C1E0D111C0E0C093720011112DC061E011
:1007B000DD23A9F187E0BCDD68E270E080E090E035
:1007C000A1DC60E087E0B4DD68E270E080E090E00A
:1007D00099DC61E087E0ACDD68E270E080E090E009
:1007E00091DC60E087E0A4DD68E270E080E090E00A
:1007F00089DC61E087E09CDD68E270E080E090E009
:1008000081DC60E087E094DD61E0D11101C060E04F
:1008100080E08EDD6C2F84E090E00EDE29CF89E051
:1008200087DD68E270E080E090E06CDC60E089E009
:100830007FDD68E270E080E090E064DC61E089E008
:1008400077DD68E270E080E090E05CDC60E089E009
:100850006FDD68E270E080E090E054DC61E089E008
:1008600067DD68E270E080E090E04CDC60E089E009
:10087000CACFEEE7F0E012821382148215828AE07A
:1008800090E097838683108684E690E0918380834E
:10089000118A0895E199FECF1FBA8EBBE09A99277D
:1008A0008DB30895262FE199FECF1CBA1FBA8EBBD7
:1008B0002DBB0FB6F894E29AE19A0FBE0196089507
:1008C000EE0FFF1F0590F491E02D099481E090E078
:0808D000F89400C0F894FFCF7A
:0808D80000000000DD00180221
:00000001FF
