:100000002DC051C050C04FC04EC04DC04CC04BC0A1
:100010004AC049C048C014C246C045C044C043C0DD
:1000200042C000003A00370000003B0038000000EA
:100030000102030400000000000000000039003647
:100040000002020201010101010101010201020499
:10005000804020100804020108007E0311241FBE06
:10006000CFE5D1E0DEBFCDBF10E0A0E6B0E0E6EA2C
:10007000F7E002C005900D92A836B107D9F720E04D
:10008000A8E6B0E001C01D92A638B207E1F710E083
:10009000CEE2D0E003C02197FE0179D3CD32D10763
:1000A000D1F718D27EC3ACCF3FB7F89480916F00E0
:1000B00090917000A0917100B091720022B708B6C3
:1000C00000FE05C02F3F19F00196A11DB11D3FBFD5
:1000D000BA2FA92F982F8827BC01CD01620F711D5F
:1000E000811D911D43E0660F771F881F991F4A9558
:1000F000D1F70895CF92DF92EF92FF92CF93DF93E3
:100100006B017C01D1DFEB01CFDF6C1B7D0B683E07
:100110007340A0F0C114D104E104F10439F4DF917B
:10012000CF91FF90EF90DF90CF90089581E0C81AB3
:10013000D108E108F108C851DC4FE6CFC114D10461
:10014000E104F10409F7EBCF2FB7F89460916B004D
:1001500070916C0080916D0090916E002FBF08959A
:10016000FC019085957081E0953009F080E008955C
:10017000CF92DF92EF92FF920F931F93CF936B0179
:100180007C0180917C008B7F80937C0084E790E0F1
:10019000CAD0C82F80917C0086958170C817D1F095
:1001A000D3DF60937600709377008093780090930C
:1001B000790080917C0092E0892780937C00809177
:1001C0007C0080FF55C084E790E0CADF811180C0C9
:1001D000C0E069C0B9DF00917600109177002091EE
:1001E000780030917900AB01BC01401B510B620BD0
:1001F000730B80917A0090917B00B0E0A0E04817EB
:1002000059076A077B07D8F280917C008170C81774
:10021000B1F29ADF60937600709377008093780054
:100220009093790080917C0091E08927846080938D
:100230007C008ADF00917D0010917E0020917F007C
:1002400030918000601B710B820B930B60938100D7
:1002500070938200809383009093840075DF609395
:100260007D0070937E0080937F0090938000A7CFE5
:10027000809173008111A7CF67DF00917D001091FD
:100280007E0020917F0030918000601B710B820BFB
:10029000930BC616D706E806F90608F094CF81E05E
:1002A00080937300C2E084E790E05ADF882339F03E
:1002B00080917300813019F410927300C3E08C2F89
:1002C000CF911F910F91FF90EF90DF90CF90089505
:1002D000C1E080917300882331F37ACF87FF07C094
:1002E000E82FEF778AE08E1BE83008F08FEF90E080
:1002F000FC01E35BFF4F2491FC01EF5BFF4FE491B6
:10030000EE2371F0F0E0EE0FFF1FE55CFF4FA591CB
:10031000B491EC91E22381E090E021F480E0089533
:1003200080E090E00895FC018189D8DF21E0892BED
:1003300009F420E0822F089590E0FC01E25DFF4F78
:100340003491FC01E35BFF4F2491FC01EF5BFF4F15
:10035000E491EE23B9F0332329F03130A1F480B7D2
:100360008F7780BFF0E0EE0FFF1FE85DFF4FA59194
:10037000B4918FB7611117C0F894EC9120952E239A
:100380002C938FBF0895323019F480B78F7DE9CF59
:10039000333021F48FB58F778FBDE4CF343011F730
:1003A0008FB58F7DF9CFF894EC912E2BE9CFCF93B9
:1003B000DF9387FF07C0E82FEF778AE08E1BE830D6
:1003C00008F08FEF90E0FC01E35BFF4F24918F5B1F
:1003D0009F4FFC0184918823C9F090E0880F991FFA
:1003E000FC01EE5DFF4FA591B491FC01E85DFF4F6C
:1003F000C591D49161110DC09FB7F8948C9120954F
:1004000082238C938881282328839FBFDF91CF91FB
:100410000895623051F49FB7F8943C91822F8095F3
:1004200083238C93E8812E2BEFCF8FB7F894EC9138
:100430002E2B2C938FBFEACF862F642FB8CFADD150
:100440001F920F920FB60F9211242F933F938F9309
:100450009F93AF93BF9380916B0090916C00A0919C
:100460006D00B0916E0030916A0026E0230F2D37A9
:1004700068F129E8230F0396A11DB11D20936A009E
:1004800080936B0090936C00A0936D00B0936E000E
:1004900080916F0090917000A0917100B0917200F6
:1004A0000196A11DB11D80936F0090937000A093E1
:1004B0007100B0937200BF91AF919F918F913F9166
:1004C0002F910F900FBE0F901F9018950296A11DAF
:1004D000B11DD4CF83E080BF83BF789499B791607A
:1004E00099BF91E09FBD8EBD86E886B962E084E049
:1004F0005EDF61E080E05BDF61E081E058DF61E0CA
:1005000089E055DF61E088E052DF61E087E04FDF9E
:1005100064EF71E080E090E02BDE90E080E021D19C
:10052000C82F80936800682F80E006DF81E090E0AC
:1005300018D180936900682F81E0FEDE84E0CEDE72
:10054000892B41F461E0C11160E06093680090E0A4
:1005500080E00FD1809169009091680091110DC0E9
:1005600061E08130E9F489E0E7DE68E270E080E094
:1005700090E0C0DD60E089E0DFDE9091690080916D
:1005800068009130B1F58130A9F461E089E0D4DEF2
:1005900060E088E0D1DE60E087E0CEDE61E014C09C
:1005A00087E0CADE68E270E080E090E0A3DD60E012
:1005B00087E0E2CF60E089E0BFDE60E088E0BCDE9B
:1005C00060E087E0B9DE60E080E0B6DE61E081E017
:1005D000B3DE60ED77E080E090E0CADD813001F5C8
:1005E00061E080916800811160E06093680080E0C4
:1005F000C3CF60E0813039F489E09EDE60E088E0BE
:100600009BDE61E0C9CF89E097DE60E088E094DEA0
:1006100060E087E091DE60E080E08EDE60E0D7CFD2
:10062000823009F0AACFC1E0809169008111C0E059
:10063000C09369006C2F81E07FDE6C2F81E090E039
:1006400098D080916800811198CF809169008130A5
:1006500089F561E089E070DE60E088E06DDE60E0F1
:1006600087E06ADE62E370E080E090E043DD60E016
:1006700089E062DE60E088E05FDE60E087E05CDE0B
:1006800062E370E080E090E035DD61E089E054DE17
:1006900060E088E051DE60E087E04EDE62E370E01B
:1006A00080E090E027DD60E089E046DE60E088E001
:1006B00043DE7DCF60E089E03FDE60E088E03CDE45
:1006C00061E087E039DE62E370E080E090E012DD17
:1006D00060E089E031DE60E088E02EDE60E087E007
:1006E0002BDE62E370E080E090E004DD60E089E012
:1006F00023DE60E088E020DE61E0CECF109276005D
:100700001092770010927800109279008AE090E0C1
:1007100090937B0080937A0010927C0084E690E0B6
:10072000909375008093740084E08093850084E743
:1007300090E0F9DD882329F080917C00836080932C
:100740007C0002DD609376007093770080937800E0
:100750009093790089E190E090937B0080937A00F8
:100760000895E199FECF1FBA8EBBE09A99278DB309
:100770000895262FE199FECF1CBA1FBA8EBB2DBB60
:100780000FB6F894E29AE19A0FBE01960895EE0F23
:10079000FF1F0590F491E02D099481E090E0F8941A
:0607A00000C0F894FFCF39
:0807A6000000000093011C0299
:00000001FF
